{
  "_format": "hh-sol-artifact-1",
  "contractName": "Upload",
  "sourceName": "contracts/Upload.sol",
  "abi": [
    {
      "inputs": [
        {
          "internalType": "address",
          "name": "_user",
          "type": "address"
        },
        {
          "internalType": "string",
          "name": "url",
          "type": "string"
        }
      ],
      "name": "add",
      "outputs": [],
      "stateMutability": "nonpayable",
      "type": "function"
    },
    {
      "inputs": [
        {
          "internalType": "address",
          "name": "user",
          "type": "address"
        }
      ],
      "name": "allow",
      "outputs": [],
      "stateMutability": "nonpayable",
      "type": "function"
    },
    {
      "inputs": [
        {
          "internalType": "uint256",
          "name": "index",
          "type": "uint256"
        }
      ],
      "name": "deleteUrl",
      "outputs": [],
      "stateMutability": "nonpayable",
      "type": "function"
    },
    {
      "inputs": [
        {
          "internalType": "address",
          "name": "user",
          "type": "address"
        }
      ],
      "name": "disallow",
      "outputs": [],
      "stateMutability": "nonpayable",
      "type": "function"
    },
    {
      "inputs": [
        {
          "internalType": "address",
          "name": "_user",
          "type": "address"
        }
      ],
      "name": "display",
      "outputs": [
        {
          "internalType": "string[]",
          "name": "",
          "type": "string[]"
        }
      ],
      "stateMutability": "view",
      "type": "function"
    },
    {
      "inputs": [],
      "name": "shareAccess",
      "outputs": [
        {
          "components": [
            {
              "internalType": "address",
              "name": "user",
              "type": "address"
            },
            {
              "internalType": "bool",
              "name": "access",
              "type": "bool"
            }
          ],
          "internalType": "struct Upload.Access[]",
          "name": "",
          "type": "tuple[]"
        }
      ],
      "stateMutability": "view",
      "type": "function"
    }
  ],
  "bytecode": "0x608060405234801561001057600080fd5b506118ef806100206000396000f3fe608060405234801561001057600080fd5b50600436106100625760003560e01c806336d6da55146100675780633b4a8c8014610083578063a9ed9cb81461009f578063bc8bef81146100bb578063eb39113f146100d9578063ff9913e814610109575b600080fd5b610081600480360381019061007c91906111a8565b610125565b005b61009d6004803603810190610098919061123a565b6102be565b005b6100b960048036038101906100b49190611267565b6104f7565b005b6100c361071a565b6040516100d0919061139c565b60405180910390f35b6100f360048036038101906100ee9190611267565b610823565b6040516101009190611508565b60405180910390f35b610123600480360381019061011e9190611267565b610a39565b005b600460008373ffffffffffffffffffffffffffffffffffffffff1673ffffffffffffffffffffffffffffffffffffffff168152602001908152602001600020816040516101729190611566565b908152602001604051809103902060009054906101000a900460ff16156101ce576040517f08c379a00000000000000000000000000000000000000000000000000000000081526004016101c590611600565b60405180910390fd5b6000808373ffffffffffffffffffffffffffffffffffffffff1673ffffffffffffffffffffffffffffffffffffffff16815260200190815260200160002081908060018154018082558091505060019003906000526020600020016000909190919091509080519060200190610245929190610e80565b506001600460008473ffffffffffffffffffffffffffffffffffffffff1673ffffffffffffffffffffffffffffffffffffffff168152602001908152602001600020826040516102959190611566565b908152602001604051809103902060006101000a81548160ff0219169083151502179055505050565b6000803373ffffffffffffffffffffffffffffffffffffffff1673ffffffffffffffffffffffffffffffffffffffff168152602001908152602001600020805490508110610341576040517f08c379a00000000000000000000000000000000000000000000000000000000081526004016103389061166c565b60405180910390fd5b60008190505b60016000803373ffffffffffffffffffffffffffffffffffffffff1673ffffffffffffffffffffffffffffffffffffffff1681526020019081526020016000208054905061039591906116bb565b811015610487576000803373ffffffffffffffffffffffffffffffffffffffff1673ffffffffffffffffffffffffffffffffffffffff1681526020019081526020016000206001826103e791906116ef565b815481106103f8576103f7611745565b5b906000526020600020016000803373ffffffffffffffffffffffffffffffffffffffff1673ffffffffffffffffffffffffffffffffffffffff168152602001908152602001600020828154811061045257610451611745565b5b90600052602060002001908054610468906117a3565b610473929190610f06565b50808061047f906117d5565b915050610347565b506000803373ffffffffffffffffffffffffffffffffffffffff1673ffffffffffffffffffffffffffffffffffffffff1681526020019081526020016000208054806104d6576104d561181e565b5b6001900381819060005260206000200160006104f29190610f93565b905550565b6000600160003373ffffffffffffffffffffffffffffffffffffffff1673ffffffffffffffffffffffffffffffffffffffff16815260200190815260200160002060008373ffffffffffffffffffffffffffffffffffffffff1673ffffffffffffffffffffffffffffffffffffffff16815260200190815260200160002060006101000a81548160ff02191690831515021790555060005b600260003373ffffffffffffffffffffffffffffffffffffffff1673ffffffffffffffffffffffffffffffffffffffff16815260200190815260200160002080549050811015610716578173ffffffffffffffffffffffffffffffffffffffff16600260003373ffffffffffffffffffffffffffffffffffffffff1673ffffffffffffffffffffffffffffffffffffffff168152602001908152602001600020828154811061064157610640611745565b5b9060005260206000200160000160009054906101000a900473ffffffffffffffffffffffffffffffffffffffff1673ffffffffffffffffffffffffffffffffffffffff161415610703576000600260003373ffffffffffffffffffffffffffffffffffffffff1673ffffffffffffffffffffffffffffffffffffffff16815260200190815260200160002082815481106106de576106dd611745565b5b9060005260206000200160000160146101000a81548160ff0219169083151502179055505b808061070e906117d5565b91505061058f565b5050565b6060600260003373ffffffffffffffffffffffffffffffffffffffff1673ffffffffffffffffffffffffffffffffffffffff168152602001908152602001600020805480602002602001604051908101604052809291908181526020016000905b8282101561081a578382906000526020600020016040518060400160405290816000820160009054906101000a900473ffffffffffffffffffffffffffffffffffffffff1673ffffffffffffffffffffffffffffffffffffffff1673ffffffffffffffffffffffffffffffffffffffff1681526020016000820160149054906101000a900460ff1615151515815250508152602001906001019061077b565b50505050905090565b60603373ffffffffffffffffffffffffffffffffffffffff168273ffffffffffffffffffffffffffffffffffffffff1614806108e55750600160008373ffffffffffffffffffffffffffffffffffffffff1673ffffffffffffffffffffffffffffffffffffffff16815260200190815260200160002060003373ffffffffffffffffffffffffffffffffffffffff1673ffffffffffffffffffffffffffffffffffffffff16815260200190815260200160002060009054906101000a900460ff165b610924576040517f08c379a000000000000000000000000000000000000000000000000000000000815260040161091b90611899565b60405180910390fd5b6000808373ffffffffffffffffffffffffffffffffffffffff1673ffffffffffffffffffffffffffffffffffffffff168152602001908152602001600020805480602002602001604051908101604052809291908181526020016000905b82821015610a2e5783829060005260206000200180546109a1906117a3565b80601f01602080910402602001604051908101604052809291908181526020018280546109cd906117a3565b8015610a1a5780601f106109ef57610100808354040283529160200191610a1a565b820191906000526020600020905b8154815290600101906020018083116109fd57829003601f168201915b505050505081526020019060010190610982565b505050509050919050565b60018060003373ffffffffffffffffffffffffffffffffffffffff1673ffffffffffffffffffffffffffffffffffffffff16815260200190815260200160002060008373ffffffffffffffffffffffffffffffffffffffff1673ffffffffffffffffffffffffffffffffffffffff16815260200190815260200160002060006101000a81548160ff021916908315150217905550600360003373ffffffffffffffffffffffffffffffffffffffff1673ffffffffffffffffffffffffffffffffffffffff16815260200190815260200160002060008273ffffffffffffffffffffffffffffffffffffffff1673ffffffffffffffffffffffffffffffffffffffff16815260200190815260200160002060009054906101000a900460ff1615610cec5760005b600260003373ffffffffffffffffffffffffffffffffffffffff1673ffffffffffffffffffffffffffffffffffffffff16815260200190815260200160002080549050811015610ce6578173ffffffffffffffffffffffffffffffffffffffff16600260003373ffffffffffffffffffffffffffffffffffffffff1673ffffffffffffffffffffffffffffffffffffffff1681526020019081526020016000208281548110610c1157610c10611745565b5b9060005260206000200160000160009054906101000a900473ffffffffffffffffffffffffffffffffffffffff1673ffffffffffffffffffffffffffffffffffffffff161415610cd3576001600260003373ffffffffffffffffffffffffffffffffffffffff1673ffffffffffffffffffffffffffffffffffffffff1681526020019081526020016000208281548110610cae57610cad611745565b5b9060005260206000200160000160146101000a81548160ff0219169083151502179055505b8080610cde906117d5565b915050610b5f565b50610e7d565b600260003373ffffffffffffffffffffffffffffffffffffffff1673ffffffffffffffffffffffffffffffffffffffff16815260200190815260200160002060405180604001604052808373ffffffffffffffffffffffffffffffffffffffff168152602001600115158152509080600181540180825580915050600190039060005260206000200160009091909190915060008201518160000160006101000a81548173ffffffffffffffffffffffffffffffffffffffff021916908373ffffffffffffffffffffffffffffffffffffffff16021790555060208201518160000160146101000a81548160ff02191690831515021790555050506001600360003373ffffffffffffffffffffffffffffffffffffffff1673ffffffffffffffffffffffffffffffffffffffff16815260200190815260200160002060008373ffffffffffffffffffffffffffffffffffffffff1673ffffffffffffffffffffffffffffffffffffffff16815260200190815260200160002060006101000a81548160ff0219169083151502179055505b50565b828054610e8c906117a3565b90600052602060002090601f016020900481019282610eae5760008555610ef5565b82601f10610ec757805160ff1916838001178555610ef5565b82800160010185558215610ef5579182015b82811115610ef4578251825591602001919060010190610ed9565b5b509050610f029190610fd3565b5090565b828054610f12906117a3565b90600052602060002090601f016020900481019282610f345760008555610f82565b82601f10610f455780548555610f82565b82800160010185558215610f8257600052602060002091601f016020900482015b82811115610f81578254825591600101919060010190610f66565b5b509050610f8f9190610fd3565b5090565b508054610f9f906117a3565b6000825580601f10610fb15750610fd0565b601f016020900490600052602060002090810190610fcf9190610fd3565b5b50565b5b80821115610fec576000816000905550600101610fd4565b5090565b6000604051905090565b600080fd5b600080fd5b600073ffffffffffffffffffffffffffffffffffffffff82169050919050565b600061102f82611004565b9050919050565b61103f81611024565b811461104a57600080fd5b50565b60008135905061105c81611036565b92915050565b600080fd5b600080fd5b6000601f19601f8301169050919050565b7f4e487b7100000000000000000000000000000000000000000000000000000000600052604160045260246000fd5b6110b58261106c565b810181811067ffffffffffffffff821117156110d4576110d361107d565b5b80604052505050565b60006110e7610ff0565b90506110f382826110ac565b919050565b600067ffffffffffffffff8211156111135761111261107d565b5b61111c8261106c565b9050602081019050919050565b82818337600083830152505050565b600061114b611146846110f8565b6110dd565b90508281526020810184848401111561116757611166611067565b5b611172848285611129565b509392505050565b600082601f83011261118f5761118e611062565b5b813561119f848260208601611138565b91505092915050565b600080604083850312156111bf576111be610ffa565b5b60006111cd8582860161104d565b925050602083013567ffffffffffffffff8111156111ee576111ed610fff565b5b6111fa8582860161117a565b9150509250929050565b6000819050919050565b61121781611204565b811461122257600080fd5b50565b6000813590506112348161120e565b92915050565b6000602082840312156112505761124f610ffa565b5b600061125e84828501611225565b91505092915050565b60006020828403121561127d5761127c610ffa565b5b600061128b8482850161104d565b91505092915050565b600081519050919050565b600082825260208201905092915050565b6000819050602082019050919050565b6112c981611024565b82525050565b60008115159050919050565b6112e4816112cf565b82525050565b60408201600082015161130060008501826112c0565b50602082015161131360208501826112db565b50505050565b600061132583836112ea565b60408301905092915050565b6000602082019050919050565b600061134982611294565b611353818561129f565b935061135e836112b0565b8060005b8381101561138f5781516113768882611319565b975061138183611331565b925050600181019050611362565b5085935050505092915050565b600060208201905081810360008301526113b6818461133e565b905092915050565b600081519050919050565b600082825260208201905092915050565b6000819050602082019050919050565b600081519050919050565b600082825260208201905092915050565b60005b83811015611424578082015181840152602081019050611409565b83811115611433576000848401525b50505050565b6000611444826113ea565b61144e81856113f5565b935061145e818560208601611406565b6114678161106c565b840191505092915050565b600061147e8383611439565b905092915050565b6000602082019050919050565b600061149e826113be565b6114a881856113c9565b9350836020820285016114ba856113da565b8060005b858110156114f657848403895281516114d78582611472565b94506114e283611486565b925060208a019950506001810190506114be565b50829750879550505050505092915050565b600060208201905081810360008301526115228184611493565b905092915050565b600081905092915050565b6000611540826113ea565b61154a818561152a565b935061155a818560208601611406565b80840191505092915050565b60006115728284611535565b915081905092915050565b600082825260208201905092915050565b7f596f75206861766520616c72656164792075706c6f616465642074686973206660008201527f696c652e00000000000000000000000000000000000000000000000000000000602082015250565b60006115ea60248361157d565b91506115f58261158e565b604082019050919050565b60006020820190508181036000830152611619816115dd565b9050919050565b7f496e76616c696420696e64657800000000000000000000000000000000000000600082015250565b6000611656600d8361157d565b915061166182611620565b602082019050919050565b6000602082019050818103600083015261168581611649565b9050919050565b7f4e487b7100000000000000000000000000000000000000000000000000000000600052601160045260246000fd5b60006116c682611204565b91506116d183611204565b9250828210156116e4576116e361168c565b5b828203905092915050565b60006116fa82611204565b915061170583611204565b9250827fffffffffffffffffffffffffffffffffffffffffffffffffffffffffffffffff0382111561173a5761173961168c565b5b828201905092915050565b7f4e487b7100000000000000000000000000000000000000000000000000000000600052603260045260246000fd5b7f4e487b7100000000000000000000000000000000000000000000000000000000600052602260045260246000fd5b600060028204905060018216806117bb57607f821691505b602082108114156117cf576117ce611774565b5b50919050565b60006117e082611204565b91507fffffffffffffffffffffffffffffffffffffffffffffffffffffffffffffffff8214156118135761181261168c565b5b600182019050919050565b7f4e487b7100000000000000000000000000000000000000000000000000000000600052603160045260246000fd5b7f596f7520646f6e27742068617665206163636573730000000000000000000000600082015250565b600061188360158361157d565b915061188e8261184d565b602082019050919050565b600060208201905081810360008301526118b281611876565b905091905056fea264697066735822122034957727033b823e510ff102094e369cd4cee82d9bd8cdeaab2f657cdaf8600764736f6c63430008090033",
  "linkReferences": {},
  "deployedLinkReferences": {}
}